:020000040800F2
:10000000B804002001010008EF020008E702000820
:10001000EB02000849010008650700080000000025
:1000200000000000000000000000000017060008AB
:100030004D010008000000006103000801070008EE
:100040001B0100081B0100081B0100081B01000820
:100050001B0100081B0100081B0100081B01000810
:100060001B0100081B0100081B0100081B01000800
:100070001B0100081B0100081B0100081B010008F0
:100080001B0100081B0100081B0100081B010008E0
:100090001B0100081B0100081B0100081B010008D0
:1000A0001B0100081B0100081B0100081B010008C0
:1000B0001B0100081B0100081B0100081B010008B0
:1000C0001B0100081B0100081B0100081B010008A0
:1000D000250400081B0100081B0100081B01000883
:1000E0001B0100081B0100081B010008DFF80CD0F1
:1000F00000F018F80048004789070008B8040020FD
:100100000648804706480047FEE7FEE7FEE7FEE7B1
:10011000FEE7FEE7FEE7FEE7FEE7FEE7050700086D
:10012000ED000008064C074D06E0E06840F00103D2
:1001300094E8070098471034AC42F6D3FFF7DAFF93
:10014000A8080008C808000800BFFEE7704701467D
:1001500042F6E06201FB02F000E0401E0028FCD104
:100160007047000010B501211D2000F00BF94FF47D
:1001700000700D490880032088701020C8700B485B
:1001800000F018F84FF400500749088003208870E9
:100190004820C870064800F00DF800224FF40071A6
:1001A000024800F09BF810BD00000020000C014048
:1001B000001001402DE9F0410246002500260020F4
:1001C00000230024002791F803C00CF00F0591F8DC
:1001D00003C00CF0100CBCF1000F03D091F802C06A
:1001E0004CEA050591F800C0BCF1000F31D014684D
:1001F00000202BE04FF0010C0CFA00F3B1F800C026
:100200000CEA03069E4220D183004FF00F0C0CFA3B
:1002100003F7BC4305FA03FC4CEA040491F803C05D
:10022000BCF1280F06D14FF0010C0CFA00FCC2F80B
:1002300014C00AE091F803C0BCF1480F05D14FF09B
:10024000010C0CFA00FCC2F810C0401C0828D1D3E5
:100250001460B1F800C0BCF1FF0F34DD5468002019
:100260002EE000F1080C4FF0010808FA0CF3B1F889
:1002700000C00CEA03069E4221D183004FF00F0C10
:100280000CFA03F7BC4305FA03FC4CEA040491F8AA
:1002900003C0BCF1280F05D100F1080C08FA0CF8D6
:1002A000C2F8148091F803C0BCF1480F07D100F1E7
:1002B000080C4FF0010808FA0CF8C2F81080401C36
:1002C0000828CED35460BDE8F08102460020936830
:1002D0000B400BB1012000E0002070470AB1016122
:1002E00000E04161704700BFFEE700BFFEE77047D6
:1002F00070B5002100230F22C47804B3154C246884
:1003000004F4E064C4F5E064210AC1F10403CA40C6
:10031000447804FA03F184781440214309010E4C17
:100320000678A155047804F01F050124AC40057837
:100330006D11AD0005F1E025C5F8004109E0047834
:1003400004F01F050124AC40044D0678761145F8F1
:10035000264070BD0CED00E000E400E080E100E02C
:100360007047000029B1064AD2690243044BDA61A2
:1003700004E0034AD2698243014BDA61704700000E
:100380000010024029B1064A92690243044B9A6167
:1003900004E0034A92698243014B9A61704700006E
:1003A0000010024010B5012141F20400FFF7EAFFFE
:1003B000A02018490880032088701820C8701648AB
:1003C000FFF7F8FE4020134908800420C870124847
:1003D000FFF7F0FE10200F490880C8700E48FFF7A5
:1003E000E9FE00200D4908804FF48270488000200B
:1003F0008880C880012008814002488110208881BF
:100400008020C881064800F0E8F80121044800F087
:100410009DF810BD000000200008014044000020AD
:100420000030014010B56021164800F0A7F820B355
:10043000144800F0CDF81449144A1278885408463C
:100440000078012814D1084610490978415C104809
:100450000E4A127881540D480078401C0B490870F0
:100460000948C07F202808D101200A49087004E00B
:10047000002006490870074908706021014800F013
:1004800071F810BD00380040960000202B000020BD
:10049000760000202C00002010B501218803FFF712
:1004A00061FF01210820FFF76DFF4FF480402249D2
:1004B0000880032088701820C8702048FFF77AFE53
:1004C0004FF420401C490880032088700420C87025
:1004D0001A48FFF76FFE4FF4805017490880032039
:1004E00088701020C8701548FFF764FE002014497A
:1004F000088048808880C8800120088140024881A7
:10050000082088818020C8810E4800F066F800220B
:1005100060210C4800F04CF801210A4800F016F860
:100520002420094908700020487088700120C87094
:100530000846FFF7DDFE10BD00000020000C014062
:1005400044000020003800400400002021B102884F
:1005500042F04002028004E002884FF6BF731A4066
:1005600002807047CA430281704702460020138907
:100570000B400BB1012000E000207047F0B50246AF
:10058000002000240023002501F00F070126BE40B3
:10059000B4B20B1101269E40B3B2968806EA030559
:1005A0001689264016B10DB1012000E00020F0BDF3
:1005B00030B5002400230C110125A540ABB21AB1BF
:1005C00085881D43858002E085889D43858030BDF8
:1005D0000146888970478181704710B500220288E2
:1005E00002F441520B884C8823438C882343CC88E7
:1005F00023430C8923434C8923438C892343CC898F
:1006000023431A430280838B4FF2FF74234083837A
:100610000B8A038210BD704710B500F001F810BDC1
:100620000CB50020019000903348006840F4803001
:100630003149086000BF3048006800F40030009085
:100640000198401C0190009818B90198B0F5A06F6E
:10065000F1D12948006800F4003010B10120009069
:1006600001E0002000900098012843D12348006851
:1006700040F01000214908600846006820F003009F
:1006800008600846006840F0020008601A484068A8
:10069000194948600846406848600846406840F488
:1006A000806048600846406820F47C104860084636
:1006B000406840F4E81048600846006840F08070E8
:1006C000086000BF0C48006800F000700028F9D0F6
:1006D0000948406820F00300074948600846406820
:1006E00040F00200486000BF0348406800F00C0082
:1006F0000828F9D10CBD0000001002400020024083
:100700007047000010B51348006840F0010011491F
:10071000086008464068104908400E49486008468D
:1007200000680E4908400B4908600846006820F43C
:10073000802008600846406820F4FE0048604FF4BE
:100740001F008860FFF768FF4FF0006004490860F1
:1007500010BD0000001002400000FFF8FFFFF6FE91
:1007600008ED00E000BFFEE702E008C8121F08C164
:10077000002AFAD170477047002001E001C1121F22
:10078000002AFBD1704700003C4800684FF47A72A1
:10079000B0FBF2F1B1F1807F00D31DE021F07F408A
:1007A000401E4FF0E022506150170F22002807DA58
:1007B00013071D0E324B00F00F04241F1D5503E0DC
:1007C00013071C0E2F4B1C5400BF00204FF0E022DB
:1007D00090610720106100BFFFF7C4FCFFF7E2FD46
:1007E000FFF75AFE0A20FFF7B2FC46E04FF4005133
:1007F0002548FFF76AFD78BB012260212348FFF7F7
:10080000D7FE0A20FFF7A3FC00224FF40071204816
:10081000FFF764FD00201F4908701F490870087029
:1008200012E000BF02211D48FFF79FFE0028F9D00B
:100830001B48194A1278815C1848FFF7CCFE16480D
:100840000078401C14490870134800782028E8DB21
:100850004FF47A70FFF77BFC1248007801280CD126
:10086000002010490870002260210848FFF7A0FE10
:10087000012251020648FFF731FDB7E730000020A2
:1008800018ED00E000E400E00010014000380040F6
:10089000000C01402B000020280000200030014007
:1008A000080000202C000020C808000800000020DC
:1008B00044000000680700080C09000844000020FC
:1008C0007404000078070008000000000000000029
:1008D0000102030405060708090A0B0C0D0E0F1090
:1008E0001112131415161718191A1B1C1D1E1F2080
:1008F000000000000000000000A24A040000000008
:0C090000000000000102030406070809C3
:04000005080000ED02
:00000001FF
